{
  "contractName": "FeelGood",
  "abi": [
    {
      "constant": true,
      "inputs": [],
      "name": "donorID",
      "outputs": [
        {
          "name": "",
          "type": "uint256"
        }
      ],
      "payable": false,
      "stateMutability": "view",
      "type": "function"
    },
    {
      "constant": true,
      "inputs": [
        {
          "name": "",
          "type": "uint256"
        }
      ],
      "name": "donorAccts",
      "outputs": [
        {
          "name": "",
          "type": "uint256"
        }
      ],
      "payable": false,
      "stateMutability": "view",
      "type": "function"
    },
    {
      "constant": false,
      "inputs": [
        {
          "name": "_donorID",
          "type": "uint256"
        }
      ],
      "name": "isTested",
      "outputs": [],
      "payable": false,
      "stateMutability": "nonpayable",
      "type": "function"
    },
    {
      "constant": false,
      "inputs": [
        {
          "name": "_donorID",
          "type": "uint256"
        }
      ],
      "name": "isConsumed",
      "outputs": [],
      "payable": false,
      "stateMutability": "nonpayable",
      "type": "function"
    },
    {
      "constant": false,
      "inputs": [
        {
          "name": "_nameOfDonor",
          "type": "bytes32"
        },
        {
          "name": "_age",
          "type": "uint256"
        },
        {
          "name": "_sex",
          "type": "bytes4"
        },
        {
          "name": "_bloodGroup",
          "type": "bytes32"
        }
      ],
      "name": "setDonor",
      "outputs": [],
      "payable": false,
      "stateMutability": "nonpayable",
      "type": "function"
    },
    {
      "anonymous": false,
      "inputs": [
        {
          "indexed": false,
          "name": "donationCenter",
          "type": "address"
        },
        {
          "indexed": false,
          "name": "nameOfDonor",
          "type": "bytes32"
        },
        {
          "indexed": false,
          "name": "age",
          "type": "uint256"
        },
        {
          "indexed": false,
          "name": "sex",
          "type": "bytes4"
        },
        {
          "indexed": false,
          "name": "date",
          "type": "uint256"
        },
        {
          "indexed": false,
          "name": "bloodGroup",
          "type": "bytes32"
        },
        {
          "indexed": false,
          "name": "isVerified",
          "type": "bool"
        },
        {
          "indexed": false,
          "name": "nameOfVerifier",
          "type": "address"
        },
        {
          "indexed": false,
          "name": "hospitalAddress",
          "type": "address"
        }
      ],
      "name": "DonorCreatedEvent",
      "type": "event"
    },
    {
      "anonymous": false,
      "inputs": [
        {
          "indexed": false,
          "name": "donationCenter",
          "type": "address"
        },
        {
          "indexed": false,
          "name": "nameOfDonor",
          "type": "bytes32"
        },
        {
          "indexed": false,
          "name": "age",
          "type": "uint256"
        },
        {
          "indexed": false,
          "name": "sex",
          "type": "bytes4"
        },
        {
          "indexed": false,
          "name": "date",
          "type": "uint256"
        },
        {
          "indexed": false,
          "name": "bloodGroup",
          "type": "bytes32"
        },
        {
          "indexed": false,
          "name": "isVerified",
          "type": "bool"
        },
        {
          "indexed": false,
          "name": "nameOfVerifier",
          "type": "address"
        },
        {
          "indexed": false,
          "name": "hospitalAddress",
          "type": "address"
        }
      ],
      "name": "IsTestedEvent",
      "type": "event"
    },
    {
      "anonymous": false,
      "inputs": [
        {
          "indexed": false,
          "name": "donationCenter",
          "type": "address"
        },
        {
          "indexed": false,
          "name": "nameOfDonor",
          "type": "bytes32"
        },
        {
          "indexed": false,
          "name": "age",
          "type": "uint256"
        },
        {
          "indexed": false,
          "name": "sex",
          "type": "bytes4"
        },
        {
          "indexed": false,
          "name": "date",
          "type": "uint256"
        },
        {
          "indexed": false,
          "name": "bloodGroup",
          "type": "bytes32"
        },
        {
          "indexed": false,
          "name": "isVerified",
          "type": "bool"
        },
        {
          "indexed": false,
          "name": "nameOfVerifier",
          "type": "address"
        },
        {
          "indexed": false,
          "name": "hospitalAddress",
          "type": "address"
        }
      ],
      "name": "IsConsumedEvent",
      "type": "event"
    }
  ],
  "bytecode": "0x606060405260008055341561001357600080fd5b610a77806100226000396000f30060606040526004361061006d576000357c0100000000000000000000000000000000000000000000000000000000900463ffffffff16806324fd97a814610072578063a2b39adc1461009b578063b9a317f1146100d2578063d7450a8d146100f5578063d7f36b6614610118575b600080fd5b341561007d57600080fd5b61008561017d565b6040518082815260200191505060405180910390f35b34156100a657600080fd5b6100bc6004808035906020019091905050610183565b6040518082815260200191505060405180910390f35b34156100dd57600080fd5b6100f360048080359060200190919050506101a7565b005b341561010057600080fd5b610116600480803590602001909190505061048a565b005b341561012357600080fd5b61017b6004808035600019169060200190919080359060200190919080357bffffffffffffffffffffffffffffffffffffffffffffffffffffffff191690602001909190803560001916906020019091905050610775565b005b60005481565b60028181548110151561019257fe5b90600052602060002090016000915090505481565b600180600083815260200190815260200160002060060160006101000a81548160ff021916908315150217905550336001600083815260200190815260200160002060060160016101000a81548173ffffffffffffffffffffffffffffffffffffffff021916908373ffffffffffffffffffffffffffffffffffffffff1602179055507f7a5882ac4919b0103edfb8c098b4a248e85a3d177862f3155fa2838de1539ea233600160008481526020019081526020016000206001015460016000858152602001908152602001600020600201546001600086815260200190815260200160002060030160009054906101000a90047c0100000000000000000000000000000000000000000000000000000000024260016000888152602001908152602001600020600501546001600089815260200190815260200160002060060160009054906101000a900460ff16600160008a815260200190815260200160002060060160019054906101000a900473ffffffffffffffffffffffffffffffffffffffff16600160008b815260200190815260200160002060070160009054906101000a900473ffffffffffffffffffffffffffffffffffffffff16604051808a73ffffffffffffffffffffffffffffffffffffffff1673ffffffffffffffffffffffffffffffffffffffff1681526020018960001916600019168152602001888152602001877bffffffffffffffffffffffffffffffffffffffffffffffffffffffff19167bffffffffffffffffffffffffffffffffffffffffffffffffffffffff191681526020018681526020018560001916600019168152602001841515151581526020018373ffffffffffffffffffffffffffffffffffffffff1673ffffffffffffffffffffffffffffffffffffffff1681526020018273ffffffffffffffffffffffffffffffffffffffff1673ffffffffffffffffffffffffffffffffffffffff168152602001995050505050505050505060405180910390a150565b336001600083815260200190815260200160002060070160006101000a81548173ffffffffffffffffffffffffffffffffffffffff021916908373ffffffffffffffffffffffffffffffffffffffff1602179055507f96344a003c050d24b4d24a70e582b937fe5039548b7a7cfda0c1dd9d3a8940076001600083815260200190815260200160002060000160009054906101000a900473ffffffffffffffffffffffffffffffffffffffff16600160008481526020019081526020016000206001015460016000858152602001908152602001600020600201546001600086815260200190815260200160002060030160009054906101000a90047c0100000000000000000000000000000000000000000000000000000000024260016000888152602001908152602001600020600501546001600089815260200190815260200160002060060160009054906101000a900460ff16600160008a815260200190815260200160002060060160019054906101000a900473ffffffffffffffffffffffffffffffffffffffff16600160008b815260200190815260200160002060070160009054906101000a900473ffffffffffffffffffffffffffffffffffffffff16604051808a73ffffffffffffffffffffffffffffffffffffffff1673ffffffffffffffffffffffffffffffffffffffff1681526020018960001916600019168152602001888152602001877bffffffffffffffffffffffffffffffffffffffffffffffffffffffff19167bffffffffffffffffffffffffffffffffffffffffffffffffffffffff191681526020018681526020018560001916600019168152602001841515151581526020018373ffffffffffffffffffffffffffffffffffffffff1673ffffffffffffffffffffffffffffffffffffffff1681526020018273ffffffffffffffffffffffffffffffffffffffff1673ffffffffffffffffffffffffffffffffffffffff168152602001995050505050505050505060405180910390a150565b60006001600080548152602001908152602001600020905084816001018160001916905550838160020181905550828160030160006101000a81548163ffffffff02191690837c0100000000000000000000000000000000000000000000000000000000900402179055508181600501816000191690555060008160060160006101000a81548160ff02191690831515021790555060008160060160016101000a81548173ffffffffffffffffffffffffffffffffffffffff021916908373ffffffffffffffffffffffffffffffffffffffff16021790555060008160070160006101000a81548173ffffffffffffffffffffffffffffffffffffffff021916908373ffffffffffffffffffffffffffffffffffffffff1602179055506001600054016000819055507f95ba97671009c0e0a19fb78f192d59d88356d3b6ea04891402eea231463594dc3386868642878760060160009054906101000a900460ff168860060160019054906101000a900473ffffffffffffffffffffffffffffffffffffffff168960070160009054906101000a900473ffffffffffffffffffffffffffffffffffffffff16604051808a73ffffffffffffffffffffffffffffffffffffffff1673ffffffffffffffffffffffffffffffffffffffff1681526020018960001916600019168152602001888152602001877bffffffffffffffffffffffffffffffffffffffffffffffffffffffff19167bffffffffffffffffffffffffffffffffffffffffffffffffffffffff191681526020018681526020018560001916600019168152602001841515151581526020018373ffffffffffffffffffffffffffffffffffffffff1673ffffffffffffffffffffffffffffffffffffffff1681526020018273ffffffffffffffffffffffffffffffffffffffff1673ffffffffffffffffffffffffffffffffffffffff168152602001995050505050505050505060405180910390a150505050505600a165627a7a723058209506dd237ce4938682d158c3af72ca2894be8532bc4f0138f054ec9e4b8263290029",
  "source": "pragma solidity ^0.4.18;\n\ncontract FeelGood {\n    uint public donorID = 0;\n    \n    struct Donor {\n        address donationCenter;\n        bytes32  nameOfDonor;\n        uint age;\n        bytes4 sex;\n        uint date;\n        bytes32 bloodGroup;\n        bool isVerified;\n        address nameOfVerifier;\n        address hospitalAddress;\n   }\n    \n    mapping (uint => Donor) donors;\n    uint[] public donorAccts; //key to the map in int. Also the donor ID in this case\n    \n    event DonorCreatedEvent(\n        address  donationCenter, \n        bytes32  nameOfDonor, \n        uint age, \n        bytes4 sex, \n        uint date, \n        bytes32 bloodGroup, \n        bool isVerified,\n        address nameOfVerifier, \n        address hospitalAddress\n    );\n    \n    function setDonor  (\n    //        uint      _donorID, //global variable which increases by itself\n            bytes32 _nameOfDonor,\n            uint _age,\n            bytes4 _sex,\n            bytes32 _bloodGroup\n            ) public\n            {\n        //Donor  memory myDonor = Donor({ donationCenter:msg.sender, nameOfDonor:_nameOfDonor, donorID:_donorID, nationality:_nationality,\n        //heightInCm:_heightInCm,sex:_sex,weight:_weight, date:now, bloodGroup:_bloodGroup, isVerified:false, nameOfVerifier:\"None\"   });\n\n        var myDonor = donors[donorID];\n        myDonor.nameOfDonor = _nameOfDonor;\n        myDonor.age = _age;\n        myDonor.sex = _sex;\n        myDonor.bloodGroup = _bloodGroup;\n        myDonor.isVerified = false;\n        myDonor.nameOfVerifier = 0;\n        myDonor.hospitalAddress = 0;\n        donorID = donorID+1;\n\n        //donorAccts.push(_donorID)-1;\n        // set all values and put in event\n\n        DonorCreatedEvent(msg.sender, _nameOfDonor, _age, _sex, now, _bloodGroup, myDonor.isVerified, myDonor.nameOfVerifier, myDonor.hospitalAddress);\n    }\n    /*\n    function getDonorsAccts() view public returns (uint[]) {\n        return donorAccts;\n    }\n    */\n    event IsTestedEvent(\n        address  donationCenter, \n        bytes32  nameOfDonor, \n        uint age,\n        bytes4 sex,\n        uint date, \n        bytes32 bloodGroup,  \n        bool isVerified, \n        address nameOfVerifier, \n        address hospitalAddress\n    );\n\n\n    function isTested (uint _donorID) public {\n        donors[_donorID].isVerified = true;\n        donors[_donorID].nameOfVerifier = msg.sender;\n        IsTestedEvent(msg.sender, donors[_donorID].nameOfDonor, donors[_donorID].age, donors[_donorID].sex, now, donors[_donorID].bloodGroup, donors[_donorID].isVerified, donors[_donorID].nameOfVerifier,donors[_donorID].hospitalAddress);\n    }\n\n    event IsConsumedEvent(\n        address  donationCenter, \n        bytes32  nameOfDonor, \n        uint age, \n        bytes4 sex, \n        uint date, \n        bytes32 bloodGroup,  \n        bool isVerified, \n        address nameOfVerifier, \n        address hospitalAddress\n    );\n\n    \n    function isConsumed(uint _donorID) public {\n        donors[_donorID].hospitalAddress = msg.sender;\n        IsConsumedEvent(donors[_donorID].donationCenter, donors[_donorID].nameOfDonor, donors[_donorID].age, donors[_donorID].sex, now, donors[_donorID].bloodGroup, donors[_donorID].isVerified, donors[_donorID].nameOfVerifier,donors[_donorID].hospitalAddress);\n    }\n}",
  "sourcePath": "/Users/hezj/ethdenver/feel-good/src/contracts/FeelGood.sol",
  "compiler": {
    "name": "solc",
    "version": "0.4.18+commit.9cf6e910.Emscripten.clang"
  },
  "schemaVersion": "1.0.1",
  "updatedAt": "2018-02-17T09:06:03.978Z"
}