{
  "contractName": "FeelGood",
  "abi": [
    {
      "constant": true,
      "inputs": [
        {
          "name": "addr",
          "type": "address"
        },
        {
          "name": "roleName",
          "type": "string"
        }
      ],
      "name": "checkRole",
      "outputs": [],
      "payable": false,
      "stateMutability": "view",
      "type": "function"
    },
    {
      "constant": true,
      "inputs": [
        {
          "name": "addr",
          "type": "address"
        },
        {
          "name": "roleName",
          "type": "string"
        }
      ],
      "name": "hasRole",
      "outputs": [
        {
          "name": "",
          "type": "bool"
        }
      ],
      "payable": false,
      "stateMutability": "view",
      "type": "function"
    },
    {
      "constant": true,
      "inputs": [],
      "name": "donorID",
      "outputs": [
        {
          "name": "",
          "type": "uint256"
        }
      ],
      "payable": false,
      "stateMutability": "view",
      "type": "function"
    },
    {
      "constant": false,
      "inputs": [
        {
          "name": "_donorID",
          "type": "uint256"
        },
        {
          "name": "_isQualified",
          "type": "bool"
        }
      ],
      "name": "isTested",
      "outputs": [],
      "payable": false,
      "stateMutability": "nonpayable",
      "type": "function"
    },
    {
      "constant": true,
      "inputs": [
        {
          "name": "",
          "type": "uint256"
        }
      ],
      "name": "donors",
      "outputs": [
        {
          "name": "donationCenter",
          "type": "address"
        },
        {
          "name": "nameOfDonor",
          "type": "string"
        },
        {
          "name": "age",
          "type": "uint256"
        },
        {
          "name": "sex",
          "type": "string"
        },
        {
          "name": "donationTime",
          "type": "uint256"
        },
        {
          "name": "bloodGroup",
          "type": "string"
        },
        {
          "name": "isQualified",
          "type": "bool"
        },
        {
          "name": "testCenter",
          "type": "address"
        },
        {
          "name": "healthCenter",
          "type": "address"
        }
      ],
      "payable": false,
      "stateMutability": "view",
      "type": "function"
    },
    {
      "constant": false,
      "inputs": [
        {
          "name": "addr",
          "type": "address"
        },
        {
          "name": "roleName",
          "type": "string"
        }
      ],
      "name": "adminRemoveRole",
      "outputs": [],
      "payable": false,
      "stateMutability": "nonpayable",
      "type": "function"
    },
    {
      "constant": false,
      "inputs": [
        {
          "name": "_nameOfDonor",
          "type": "string"
        },
        {
          "name": "_age",
          "type": "uint256"
        },
        {
          "name": "_sex",
          "type": "string"
        },
        {
          "name": "_bloodGroup",
          "type": "string"
        },
        {
          "name": "_donationTime",
          "type": "uint256"
        }
      ],
      "name": "setDonor",
      "outputs": [],
      "payable": false,
      "stateMutability": "nonpayable",
      "type": "function"
    },
    {
      "constant": false,
      "inputs": [
        {
          "name": "addr",
          "type": "address"
        },
        {
          "name": "roleName",
          "type": "string"
        }
      ],
      "name": "adminAddRole",
      "outputs": [],
      "payable": false,
      "stateMutability": "nonpayable",
      "type": "function"
    },
    {
      "constant": true,
      "inputs": [],
      "name": "ROLE_ADMIN",
      "outputs": [
        {
          "name": "",
          "type": "string"
        }
      ],
      "payable": false,
      "stateMutability": "view",
      "type": "function"
    },
    {
      "constant": false,
      "inputs": [
        {
          "name": "_donorID",
          "type": "uint256"
        }
      ],
      "name": "isConsumed",
      "outputs": [],
      "payable": false,
      "stateMutability": "nonpayable",
      "type": "function"
    },
    {
      "anonymous": false,
      "inputs": [
        {
          "indexed": false,
          "name": "donorID",
          "type": "uint256"
        },
        {
          "indexed": false,
          "name": "donationCenter",
          "type": "address"
        },
        {
          "indexed": false,
          "name": "nameOfDonor",
          "type": "string"
        },
        {
          "indexed": false,
          "name": "age",
          "type": "uint256"
        },
        {
          "indexed": false,
          "name": "sex",
          "type": "string"
        },
        {
          "indexed": false,
          "name": "donationTime",
          "type": "uint256"
        },
        {
          "indexed": false,
          "name": "bloodGroup",
          "type": "string"
        },
        {
          "indexed": false,
          "name": "isQualified",
          "type": "bool"
        },
        {
          "indexed": false,
          "name": "testCenter",
          "type": "address"
        },
        {
          "indexed": false,
          "name": "healthCenter",
          "type": "address"
        }
      ],
      "name": "DonorCreatedEvent",
      "type": "event"
    },
    {
      "anonymous": false,
      "inputs": [
        {
          "indexed": false,
          "name": "donorID",
          "type": "uint256"
        },
        {
          "indexed": false,
          "name": "donationCenter",
          "type": "address"
        },
        {
          "indexed": false,
          "name": "nameOfDonor",
          "type": "string"
        },
        {
          "indexed": false,
          "name": "age",
          "type": "uint256"
        },
        {
          "indexed": false,
          "name": "sex",
          "type": "string"
        },
        {
          "indexed": false,
          "name": "donationTime",
          "type": "uint256"
        },
        {
          "indexed": false,
          "name": "bloodGroup",
          "type": "string"
        },
        {
          "indexed": false,
          "name": "isQualified",
          "type": "bool"
        },
        {
          "indexed": false,
          "name": "testCenter",
          "type": "address"
        },
        {
          "indexed": false,
          "name": "healthCenter",
          "type": "address"
        }
      ],
      "name": "IsTestedEvent",
      "type": "event"
    },
    {
      "anonymous": false,
      "inputs": [
        {
          "indexed": false,
          "name": "donationCenter",
          "type": "address"
        },
        {
          "indexed": false,
          "name": "nameOfDonor",
          "type": "string"
        },
        {
          "indexed": false,
          "name": "age",
          "type": "uint256"
        },
        {
          "indexed": false,
          "name": "sex",
          "type": "string"
        },
        {
          "indexed": false,
          "name": "date",
          "type": "uint256"
        },
        {
          "indexed": false,
          "name": "bloodGroup",
          "type": "string"
        },
        {
          "indexed": false,
          "name": "isQualified",
          "type": "bool"
        },
        {
          "indexed": false,
          "name": "testCenter",
          "type": "address"
        },
        {
          "indexed": false,
          "name": "healthCenter",
          "type": "address"
        }
      ],
      "name": "IsConsumedEvent",
      "type": "event"
    },
    {
      "anonymous": false,
      "inputs": [
        {
          "indexed": false,
          "name": "addr",
          "type": "address"
        },
        {
          "indexed": false,
          "name": "roleName",
          "type": "string"
        }
      ],
      "name": "RoleAdded",
      "type": "event"
    },
    {
      "anonymous": false,
      "inputs": [
        {
          "indexed": false,
          "name": "addr",
          "type": "address"
        },
        {
          "indexed": false,
          "name": "roleName",
          "type": "string"
        }
      ],
      "name": "RoleRemoved",
      "type": "event"
    }
  ],
  "bytecode": "0x606060405260006002556200005e336040805190810160405280600581526020017f61646d696e0000000000000000000000000000000000000000000000000000008152506200006464010000000002620018e4176401000000009004565b62000228565b620000f3826000836040518082805190602001908083835b602083101515620000a357805182526020820191506020810190506020830392506200007c565b6001836020036101000a0380198251168184511680821785525050505050509050019150509081526020016040518091039020620001ca6401000000000262001a93179091906401000000009004565b7fbfec83d64eaa953f2708271a023ab9ee82057f8f3578d548c1a4ba0b5b7004898282604051808373ffffffffffffffffffffffffffffffffffffffff1673ffffffffffffffffffffffffffffffffffffffff16815260200180602001828103825283818151815260200191508051906020019080838360005b838110156200018a5780820151818401526020810190506200016d565b50505050905090810190601f168015620001b85780820380516001836020036101000a031916815260200191505b50935050505060405180910390a15050565b60018260000160008373ffffffffffffffffffffffffffffffffffffffff1673ffffffffffffffffffffffffffffffffffffffff16815260200190815260200160002060006101000a81548160ff0219169083151502179055505050565b611bc280620002386000396000f3006060604052600436106100a4576000357c0100000000000000000000000000000000000000000000000000000000900463ffffffff1680630988ca8c146100a9578063217fe6c61461012557806324fd97a8146101b95780633c95555a146101e25780634abfa1631461021057806388cee87e1461048d578063a6f0807714610509578063b25fa92c146105fe578063d391014b1461067a578063d7450a8d14610708575b600080fd5b34156100b457600080fd5b610123600480803573ffffffffffffffffffffffffffffffffffffffff1690602001909190803590602001908201803590602001908080601f0160208091040260200160405190810160405280939291908181526020018383808284378201915050505050509190505061072b565b005b341561013057600080fd5b61019f600480803573ffffffffffffffffffffffffffffffffffffffff1690602001909190803590602001908201803590602001908080601f016020809104026020016040519081016040528093929190818152602001838380828437820191505050505050919050506107ac565b604051808215151515815260200191505060405180910390f35b34156101c457600080fd5b6101cc610833565b6040518082815260200191505060405180910390f35b34156101ed57600080fd5b61020e60048080359060200190919080351515906020019091905050610839565b005b341561021b57600080fd5b6102316004808035906020019091905050610d04565b604051808a73ffffffffffffffffffffffffffffffffffffffff1673ffffffffffffffffffffffffffffffffffffffff168152602001806020018981526020018060200188815260200180602001871515151581526020018673ffffffffffffffffffffffffffffffffffffffff1673ffffffffffffffffffffffffffffffffffffffff1681526020018573ffffffffffffffffffffffffffffffffffffffff1673ffffffffffffffffffffffffffffffffffffffff16815260200184810384528c81815460018160011615610100020316600290048152602001915080546001816001161561010002031660029004801561036e5780601f106103435761010080835404028352916020019161036e565b820191906000526020600020905b81548152906001019060200180831161035157829003601f168201915b505084810383528a8181546001816001161561010002031660029004815260200191508054600181600116156101000203166002900480156103f15780601f106103c6576101008083540402835291602001916103f1565b820191906000526020600020905b8154815290600101906020018083116103d457829003601f168201915b50508481038252888181546001816001161561010002031660029004815260200191508054600181600116156101000203166002900480156104745780601f1061044957610100808354040283529160200191610474565b820191906000526020600020905b81548152906001019060200180831161045757829003601f168201915b50509c5050505050505050505050505060405180910390f35b341561049857600080fd5b610507600480803573ffffffffffffffffffffffffffffffffffffffff1690602001909190803590602001908201803590602001908080601f01602080910402602001604051908101604052809392919081815260200183838082843782019150505050505091905050610dbc565b005b341561051457600080fd5b6105fc600480803590602001908201803590602001908080601f0160208091040260200160405190810160405280939291908181526020018383808284378201915050505050509190803590602001909190803590602001908201803590602001908080601f0160208091040260200160405190810160405280939291908181526020018383808284378201915050505050509190803590602001908201803590602001908080601f01602080910402602001604051908101604052809392919081815260200183838082843782019150505050505091908035906020019091905050610e09565b005b341561060957600080fd5b610678600480803573ffffffffffffffffffffffffffffffffffffffff1690602001909190803590602001908201803590602001908080601f01602080910402602001604051908101604052809392919081815260200183838082843782019150505050505091905050611263565b005b341561068557600080fd5b61068d6112b0565b6040518080602001828103825283818151815260200191508051906020019080838360005b838110156106cd5780820151818401526020810190506106b2565b50505050905090810190601f1680156106fa5780820380516001836020036101000a031916815260200191505b509250505060405180910390f35b341561071357600080fd5b61072960048080359060200190919050506112e9565b005b6107a8826000836040518082805190602001908083835b6020831015156107675780518252602082019150602081019050602083039250610742565b6001836020036101000a038019825116818451168082178552505050505050905001915050908152602001604051809103902061172190919063ffffffff16565b5050565b600061082b836000846040518082805190602001908083835b6020831015156107ea57805182526020820191506020810190506020830392506107c5565b6001836020036101000a038019825116818451168082178552505050505050905001915050908152602001604051809103902061173a90919063ffffffff16565b905092915050565b60025481565b6040805190810160405280600a81526020017f5465737443656e74657200000000000000000000000000000000000000000000815250610879338261072b565b60006001600085815260200190815260200160002060000160009054906101000a900473ffffffffffffffffffffffffffffffffffffffff1673ffffffffffffffffffffffffffffffffffffffff16141515156108d557600080fd5b816001600085815260200190815260200160002060060160006101000a81548160ff021916908315150217905550336001600085815260200190815260200160002060060160016101000a81548173ffffffffffffffffffffffffffffffffffffffff021916908373ffffffffffffffffffffffffffffffffffffffff1602179055507faee47a8d9afe6b2680f29cd26c493ed15742286539886bc14331c6940e8690b4836001600086815260200190815260200160002060000160009054906101000a900473ffffffffffffffffffffffffffffffffffffffff166001600087815260200190815260200160002060010160016000888152602001908152602001600020600201546001600089815260200190815260200160002060030142600160008b8152602001908152602001600020600501600160008c815260200190815260200160002060060160009054906101000a900460ff16600160008d815260200190815260200160002060060160019054906101000a900473ffffffffffffffffffffffffffffffffffffffff16600160008e815260200190815260200160002060070160009054906101000a900473ffffffffffffffffffffffffffffffffffffffff16604051808b81526020018a73ffffffffffffffffffffffffffffffffffffffff1673ffffffffffffffffffffffffffffffffffffffff168152602001806020018981526020018060200188815260200180602001871515151581526020018673ffffffffffffffffffffffffffffffffffffffff1673ffffffffffffffffffffffffffffffffffffffff1681526020018573ffffffffffffffffffffffffffffffffffffffff1673ffffffffffffffffffffffffffffffffffffffff16815260200184810384528c818154600181600116156101000203166002900481526020019150805460018160011615610100020316600290048015610be05780601f10610bb557610100808354040283529160200191610be0565b820191906000526020600020905b815481529060010190602001808311610bc357829003601f168201915b505084810383528a818154600181600116156101000203166002900481526020019150805460018160011615610100020316600290048015610c635780601f10610c3857610100808354040283529160200191610c63565b820191906000526020600020905b815481529060010190602001808311610c4657829003601f168201915b5050848103825288818154600181600116156101000203166002900481526020019150805460018160011615610100020316600290048015610ce65780601f10610cbb57610100808354040283529160200191610ce6565b820191906000526020600020905b815481529060010190602001808311610cc957829003601f168201915b50509d505050505050505050505050505060405180910390a1505050565b60016020528060005260406000206000915090508060000160009054906101000a900473ffffffffffffffffffffffffffffffffffffffff16908060010190806002015490806003019080600401549080600501908060060160009054906101000a900460ff16908060060160019054906101000a900473ffffffffffffffffffffffffffffffffffffffff16908060070160009054906101000a900473ffffffffffffffffffffffffffffffffffffffff16905089565b610dfb336040805190810160405280600581526020017f61646d696e00000000000000000000000000000000000000000000000000000081525061072b565b610e058282611793565b5050565b60006040805190810160405280600e81526020017f446f6e6174696f6e43656e746572000000000000000000000000000000000000815250610e4b338261072b565b60128610151515610e5b57600080fd5b6002600081548092919060010191905055506001600060025481526020019081526020016000209150338260000160006101000a81548173ffffffffffffffffffffffffffffffffffffffff021916908373ffffffffffffffffffffffffffffffffffffffff16021790555086826001019080519060200190610edf929190611af1565b5085826002018190555084826003019080519060200190610f01929190611af1565b5082826004018190555083826005019080519060200190610f23929190611af1565b5060008260060160006101000a81548160ff02191690831515021790555060008260060160016101000a81548173ffffffffffffffffffffffffffffffffffffffff021916908373ffffffffffffffffffffffffffffffffffffffff16021790555060008260070160006101000a81548173ffffffffffffffffffffffffffffffffffffffff021916908373ffffffffffffffffffffffffffffffffffffffff1602179055507f48b834cf9c09a186a9dd3ffbde243e487cdf3098321c9daed8e61b0b8b01d7a260025433898989888a8960060160009054906101000a900460ff168a60060160019054906101000a900473ffffffffffffffffffffffffffffffffffffffff168b60070160009054906101000a900473ffffffffffffffffffffffffffffffffffffffff16604051808b81526020018a73ffffffffffffffffffffffffffffffffffffffff1673ffffffffffffffffffffffffffffffffffffffff168152602001806020018981526020018060200188815260200180602001871515151581526020018673ffffffffffffffffffffffffffffffffffffffff1673ffffffffffffffffffffffffffffffffffffffff1681526020018573ffffffffffffffffffffffffffffffffffffffff1673ffffffffffffffffffffffffffffffffffffffff16815260200184810384528c818151815260200191508051906020019080838360005b8381101561114957808201518184015260208101905061112e565b50505050905090810190601f1680156111765780820380516001836020036101000a031916815260200191505b5084810383528a818151815260200191508051906020019080838360005b838110156111af578082015181840152602081019050611194565b50505050905090810190601f1680156111dc5780820380516001836020036101000a031916815260200191505b50848103825288818151815260200191508051906020019080838360005b838110156112155780820151818401526020810190506111fa565b50505050905090810190601f1680156112425780820380516001836020036101000a031916815260200191505b509d505050505050505050505050505060405180910390a150505050505050565b6112a2336040805190810160405280600581526020017f61646d696e00000000000000000000000000000000000000000000000000000081525061072b565b6112ac82826118e4565b5050565b6040805190810160405280600581526020017f61646d696e00000000000000000000000000000000000000000000000000000081525081565b6040805190810160405280600c81526020017f4865616c746843656e7465720000000000000000000000000000000000000000815250611329338261072b565b336001600084815260200190815260200160002060070160006101000a81548173ffffffffffffffffffffffffffffffffffffffff021916908373ffffffffffffffffffffffffffffffffffffffff1602179055507fc81916ff1e0384278177f177f3a0bd9c2f4d8c46fef371327ceaabc7881c923b6001600084815260200190815260200160002060000160009054906101000a900473ffffffffffffffffffffffffffffffffffffffff16600160008581526020019081526020016000206001016001600086815260200190815260200160002060020154600160008781526020019081526020016000206003014260016000898152602001908152602001600020600501600160008a815260200190815260200160002060060160009054906101000a900460ff16600160008b815260200190815260200160002060060160019054906101000a900473ffffffffffffffffffffffffffffffffffffffff16600160008c815260200190815260200160002060070160009054906101000a900473ffffffffffffffffffffffffffffffffffffffff16604051808a73ffffffffffffffffffffffffffffffffffffffff1673ffffffffffffffffffffffffffffffffffffffff168152602001806020018981526020018060200188815260200180602001871515151581526020018673ffffffffffffffffffffffffffffffffffffffff1673ffffffffffffffffffffffffffffffffffffffff1681526020018573ffffffffffffffffffffffffffffffffffffffff1673ffffffffffffffffffffffffffffffffffffffff16815260200184810384528c8181546001816001161561010002031660029004815260200191508054600181600116156101000203166002900480156115ff5780601f106115d4576101008083540402835291602001916115ff565b820191906000526020600020905b8154815290600101906020018083116115e257829003601f168201915b505084810383528a8181546001816001161561010002031660029004815260200191508054600181600116156101000203166002900480156116825780601f1061165757610100808354040283529160200191611682565b820191906000526020600020905b81548152906001019060200180831161166557829003601f168201915b50508481038252888181546001816001161561010002031660029004815260200191508054600181600116156101000203166002900480156117055780601f106116da57610100808354040283529160200191611705565b820191906000526020600020905b8154815290600101906020018083116116e857829003601f168201915b50509c5050505050505050505050505060405180910390a15050565b61172b828261173a565b151561173657600080fd5b5050565b60008260000160008373ffffffffffffffffffffffffffffffffffffffff1673ffffffffffffffffffffffffffffffffffffffff16815260200190815260200160002060009054906101000a900460ff16905092915050565b611810826000836040518082805190602001908083835b6020831015156117cf57805182526020820191506020810190506020830392506117aa565b6001836020036101000a0380198251168184511680821785525050505050509050019150509081526020016040518091039020611a3590919063ffffffff16565b7fd211483f91fc6eff862467f8de606587a30c8fc9981056f051b897a418df803a8282604051808373ffffffffffffffffffffffffffffffffffffffff1673ffffffffffffffffffffffffffffffffffffffff16815260200180602001828103825283818151815260200191508051906020019080838360005b838110156118a557808201518184015260208101905061188a565b50505050905090810190601f1680156118d25780820380516001836020036101000a031916815260200191505b50935050505060405180910390a15050565b611961826000836040518082805190602001908083835b60208310151561192057805182526020820191506020810190506020830392506118fb565b6001836020036101000a0380198251168184511680821785525050505050509050019150509081526020016040518091039020611a9390919063ffffffff16565b7fbfec83d64eaa953f2708271a023ab9ee82057f8f3578d548c1a4ba0b5b7004898282604051808373ffffffffffffffffffffffffffffffffffffffff1673ffffffffffffffffffffffffffffffffffffffff16815260200180602001828103825283818151815260200191508051906020019080838360005b838110156119f65780820151818401526020810190506119db565b50505050905090810190601f168015611a235780820380516001836020036101000a031916815260200191505b50935050505060405180910390a15050565b60008260000160008373ffffffffffffffffffffffffffffffffffffffff1673ffffffffffffffffffffffffffffffffffffffff16815260200190815260200160002060006101000a81548160ff0219169083151502179055505050565b60018260000160008373ffffffffffffffffffffffffffffffffffffffff1673ffffffffffffffffffffffffffffffffffffffff16815260200190815260200160002060006101000a81548160ff0219169083151502179055505050565b828054600181600116156101000203166002900490600052602060002090601f016020900481019282601f10611b3257805160ff1916838001178555611b60565b82800160010185558215611b60579182015b82811115611b5f578251825591602001919060010190611b44565b5b509050611b6d9190611b71565b5090565b611b9391905b80821115611b8f576000816000905550600101611b77565b5090565b905600a165627a7a72305820253fe743a8cf29c0e85918b0746464942248336b8ea3c57ab4b460b9b795c2190029",
  "source": "pragma solidity ^0.4.18;\n\nimport '../../node_modules/zeppelin-solidity/contracts/ownership/rbac/RBAC.sol';\n\ncontract FeelGood is RBAC {\n    struct Donor {\n        address donationCenter;\n        string  nameOfDonor;\n        uint age;\n        string sex;\n        uint donationTime;\n        string bloodGroup;\n        bool isQualified;\n        address testCenter;\n        address healthCenter;\n   }\n    \n    mapping (uint => Donor) public donors;\n    uint public donorID = 0;\n\n    event DonorCreatedEvent(\n        uint donorID,\n        address donationCenter, \n        string nameOfDonor, \n        uint age, \n        string sex, \n        uint donationTime, \n        string bloodGroup, \n        bool isQualified,\n        address testCenter, \n        address healthCenter\n    );\n    \n    function setDonor (\n        string _nameOfDonor,\n        uint _age,\n        string _sex,\n        string _bloodGroup,\n        uint _donationTime\n    ) public onlyRole(\"DonationCenter\")\n    {\n        require(_age >= 18);\n\n        donorID++;\n\n        var myDonor = donors[donorID];\n        myDonor.donationCenter = msg.sender;\n        myDonor.nameOfDonor = _nameOfDonor;\n        myDonor.age = _age;\n        myDonor.sex = _sex;\n        myDonor.donationTime = _donationTime;\n        myDonor.bloodGroup = _bloodGroup;\n        myDonor.isQualified = false;\n        myDonor.testCenter = 0;\n        myDonor.healthCenter = 0;\n\n        // set all values and put in event\n        DonorCreatedEvent(donorID, msg.sender, _nameOfDonor, _age, _sex, _donationTime, _bloodGroup, myDonor.isQualified, myDonor.testCenter, myDonor.healthCenter);\n    }\n\n    event IsTestedEvent(\n        uint donorID,\n        address donationCenter, \n        string nameOfDonor, \n        uint age, \n        string sex, \n        uint donationTime, \n        string bloodGroup, \n        bool isQualified,\n        address testCenter, \n        address healthCenter\n    );\n\n\n    function isTested (\n        uint _donorID, \n        bool _isQualified\n    ) public onlyRole(\"TestCenter\")\n    {\n        require(donors[_donorID].donationCenter != 0);\n        // require(not expired) TODO\n        donors[_donorID].isQualified = _isQualified;\n        donors[_donorID].testCenter = msg.sender;\n        IsTestedEvent(_donorID, donors[_donorID].donationCenter, donors[_donorID].nameOfDonor, donors[_donorID].age, donors[_donorID].sex, now, donors[_donorID].bloodGroup, donors[_donorID].isQualified, donors[_donorID].testCenter,donors[_donorID].healthCenter);\n    }\n\n    event IsConsumedEvent(\n        address  donationCenter, \n        string  nameOfDonor, \n        uint age, \n        string sex, \n        uint date, \n        string bloodGroup,  \n        bool isQualified, \n        address testCenter, \n        address healthCenter\n    );\n\n    function isConsumed(uint _donorID) public onlyRole(\"HealthCenter\") {\n        donors[_donorID].healthCenter = msg.sender;\n        IsConsumedEvent(donors[_donorID].donationCenter, donors[_donorID].nameOfDonor, donors[_donorID].age, donors[_donorID].sex, now, donors[_donorID].bloodGroup, donors[_donorID].isQualified, donors[_donorID].testCenter,donors[_donorID].healthCenter);\n    }\n}",
  "sourcePath": "/Users/hezj/ethdenver/feel-good/src/contracts/FeelGood.sol",
  "compiler": {
    "name": "solc",
    "version": "0.4.18+commit.9cf6e910.Emscripten.clang"
  },
  "schemaVersion": "1.0.1",
  "updatedAt": "2018-02-17T20:44:18.950Z"
}