{
  "contractName": "FeelGood",
  "abi": [
    {
      "constant": true,
      "inputs": [],
      "name": "donorID",
      "outputs": [
        {
          "name": "",
          "type": "uint256"
        }
      ],
      "payable": false,
      "stateMutability": "view",
      "type": "function"
    },
    {
      "constant": true,
      "inputs": [
        {
          "name": "",
          "type": "uint256"
        }
      ],
      "name": "donors",
      "outputs": [
        {
          "name": "donationCenter",
          "type": "address"
        },
        {
          "name": "nameOfDonor",
          "type": "string"
        },
        {
          "name": "age",
          "type": "uint256"
        },
        {
          "name": "sex",
          "type": "string"
        },
        {
          "name": "donationTime",
          "type": "uint256"
        },
        {
          "name": "bloodGroup",
          "type": "string"
        },
        {
          "name": "isVerified",
          "type": "bool"
        },
        {
          "name": "verifierAddress",
          "type": "address"
        },
        {
          "name": "hospitalAddress",
          "type": "address"
        }
      ],
      "payable": false,
      "stateMutability": "view",
      "type": "function"
    },
    {
      "constant": false,
      "inputs": [
        {
          "name": "_nameOfDonor",
          "type": "string"
        },
        {
          "name": "_age",
          "type": "uint256"
        },
        {
          "name": "_sex",
          "type": "string"
        },
        {
          "name": "_bloodGroup",
          "type": "string"
        },
        {
          "name": "_donationTime",
          "type": "uint256"
        }
      ],
      "name": "setDonor",
      "outputs": [],
      "payable": false,
      "stateMutability": "nonpayable",
      "type": "function"
    },
    {
      "constant": false,
      "inputs": [
        {
          "name": "_donorID",
          "type": "uint256"
        }
      ],
      "name": "isTested",
      "outputs": [],
      "payable": false,
      "stateMutability": "nonpayable",
      "type": "function"
    },
    {
      "constant": false,
      "inputs": [
        {
          "name": "_donorID",
          "type": "uint256"
        }
      ],
      "name": "isConsumed",
      "outputs": [],
      "payable": false,
      "stateMutability": "nonpayable",
      "type": "function"
    },
    {
      "anonymous": false,
      "inputs": [
        {
          "indexed": false,
          "name": "donorID",
          "type": "uint256"
        },
        {
          "indexed": false,
          "name": "donationCenter",
          "type": "address"
        },
        {
          "indexed": false,
          "name": "nameOfDonor",
          "type": "string"
        },
        {
          "indexed": false,
          "name": "age",
          "type": "uint256"
        },
        {
          "indexed": false,
          "name": "sex",
          "type": "string"
        },
        {
          "indexed": false,
          "name": "donationTime",
          "type": "uint256"
        },
        {
          "indexed": false,
          "name": "bloodGroup",
          "type": "string"
        },
        {
          "indexed": false,
          "name": "isVerified",
          "type": "bool"
        },
        {
          "indexed": false,
          "name": "verifierAddress",
          "type": "address"
        },
        {
          "indexed": false,
          "name": "hospitalAddress",
          "type": "address"
        }
      ],
      "name": "DonorCreatedEvent",
      "type": "event"
    },
    {
      "anonymous": false,
      "inputs": [
        {
          "indexed": false,
          "name": "donationCenter",
          "type": "address"
        },
        {
          "indexed": false,
          "name": "nameOfDonor",
          "type": "string"
        },
        {
          "indexed": false,
          "name": "age",
          "type": "uint256"
        },
        {
          "indexed": false,
          "name": "sex",
          "type": "string"
        },
        {
          "indexed": false,
          "name": "date",
          "type": "uint256"
        },
        {
          "indexed": false,
          "name": "bloodGroup",
          "type": "string"
        },
        {
          "indexed": false,
          "name": "isVerified",
          "type": "bool"
        },
        {
          "indexed": false,
          "name": "verifierAddress",
          "type": "address"
        },
        {
          "indexed": false,
          "name": "hospitalAddress",
          "type": "address"
        }
      ],
      "name": "IsTestedEvent",
      "type": "event"
    },
    {
      "anonymous": false,
      "inputs": [
        {
          "indexed": false,
          "name": "donationCenter",
          "type": "address"
        },
        {
          "indexed": false,
          "name": "nameOfDonor",
          "type": "string"
        },
        {
          "indexed": false,
          "name": "age",
          "type": "uint256"
        },
        {
          "indexed": false,
          "name": "sex",
          "type": "string"
        },
        {
          "indexed": false,
          "name": "date",
          "type": "uint256"
        },
        {
          "indexed": false,
          "name": "bloodGroup",
          "type": "string"
        },
        {
          "indexed": false,
          "name": "isVerified",
          "type": "bool"
        },
        {
          "indexed": false,
          "name": "verifierAddress",
          "type": "address"
        },
        {
          "indexed": false,
          "name": "hospitalAddress",
          "type": "address"
        }
      ],
      "name": "IsConsumedEvent",
      "type": "event"
    }
  ],
  "bytecode": "0x606060405260008055341561001357600080fd5b6111da806100226000396000f30060606040526004361061006d576000357c0100000000000000000000000000000000000000000000000000000000900463ffffffff16806324fd97a8146100725780634abfa1631461009b578063a6f0807714610318578063b9a317f11461040d578063d7450a8d14610430575b600080fd5b341561007d57600080fd5b610085610453565b6040518082815260200191505060405180910390f35b34156100a657600080fd5b6100bc6004808035906020019091905050610459565b604051808a73ffffffffffffffffffffffffffffffffffffffff1673ffffffffffffffffffffffffffffffffffffffff168152602001806020018981526020018060200188815260200180602001871515151581526020018673ffffffffffffffffffffffffffffffffffffffff1673ffffffffffffffffffffffffffffffffffffffff1681526020018573ffffffffffffffffffffffffffffffffffffffff1673ffffffffffffffffffffffffffffffffffffffff16815260200184810384528c8181546001816001161561010002031660029004815260200191508054600181600116156101000203166002900480156101f95780601f106101ce576101008083540402835291602001916101f9565b820191906000526020600020905b8154815290600101906020018083116101dc57829003601f168201915b505084810383528a81815460018160011615610100020316600290048152602001915080546001816001161561010002031660029004801561027c5780601f106102515761010080835404028352916020019161027c565b820191906000526020600020905b81548152906001019060200180831161025f57829003601f168201915b50508481038252888181546001816001161561010002031660029004815260200191508054600181600116156101000203166002900480156102ff5780601f106102d4576101008083540402835291602001916102ff565b820191906000526020600020905b8154815290600101906020018083116102e257829003601f168201915b50509c5050505050505050505050505060405180910390f35b341561032357600080fd5b61040b600480803590602001908201803590602001908080601f0160208091040260200160405190810160405280939291908181526020018383808284378201915050505050509190803590602001909190803590602001908201803590602001908080601f0160208091040260200160405190810160405280939291908181526020018383808284378201915050505050509190803590602001908201803590602001908080601f01602080910402602001604051908101604052809392919081815260200183838082843782019150505050505091908035906020019091905050610511565b005b341561041857600080fd5b61042e6004808035906020019091905050610923565b005b341561043b57600080fd5b6104516004808035906020019091905050610d12565b005b60005481565b60016020528060005260406000206000915090508060000160009054906101000a900473ffffffffffffffffffffffffffffffffffffffff16908060010190806002015490806003019080600401549080600501908060060160009054906101000a900460ff16908060060160019054906101000a900473ffffffffffffffffffffffffffffffffffffffff16908060070160009054906101000a900473ffffffffffffffffffffffffffffffffffffffff16905089565b60006012851015151561052357600080fd5b60016000540160008190555060016000805481526020019081526020016000209050338160000160006101000a81548173ffffffffffffffffffffffffffffffffffffffff021916908373ffffffffffffffffffffffffffffffffffffffff160217905550858160010190805190602001906105a0929190611109565b50848160020181905550838160030190805190602001906105c2929190611109565b50818160040181905550828160050190805190602001906105e4929190611109565b5060008160060160006101000a81548160ff02191690831515021790555060008160060160016101000a81548173ffffffffffffffffffffffffffffffffffffffff021916908373ffffffffffffffffffffffffffffffffffffffff16021790555060008160070160006101000a81548173ffffffffffffffffffffffffffffffffffffffff021916908373ffffffffffffffffffffffffffffffffffffffff1602179055507f48b834cf9c09a186a9dd3ffbde243e487cdf3098321c9daed8e61b0b8b01d7a26000543388888887898860060160009054906101000a900460ff168960060160019054906101000a900473ffffffffffffffffffffffffffffffffffffffff168a60070160009054906101000a900473ffffffffffffffffffffffffffffffffffffffff16604051808b81526020018a73ffffffffffffffffffffffffffffffffffffffff1673ffffffffffffffffffffffffffffffffffffffff168152602001806020018981526020018060200188815260200180602001871515151581526020018673ffffffffffffffffffffffffffffffffffffffff1673ffffffffffffffffffffffffffffffffffffffff1681526020018573ffffffffffffffffffffffffffffffffffffffff1673ffffffffffffffffffffffffffffffffffffffff16815260200184810384528c818151815260200191508051906020019080838360005b8381101561080a5780820151818401526020810190506107ef565b50505050905090810190601f1680156108375780820380516001836020036101000a031916815260200191505b5084810383528a818151815260200191508051906020019080838360005b83811015610870578082015181840152602081019050610855565b50505050905090810190601f16801561089d5780820380516001836020036101000a031916815260200191505b50848103825288818151815260200191508051906020019080838360005b838110156108d65780820151818401526020810190506108bb565b50505050905090810190601f1680156109035780820380516001836020036101000a031916815260200191505b509d505050505050505050505050505060405180910390a1505050505050565b600180600083815260200190815260200160002060060160006101000a81548160ff021916908315150217905550336001600083815260200190815260200160002060060160016101000a81548173ffffffffffffffffffffffffffffffffffffffff021916908373ffffffffffffffffffffffffffffffffffffffff1602179055507f2bbbbaf294384619a9e589b35dca736e9c6e731a6fbf252fc3a0748386f635e3336001600084815260200190815260200160002060010160016000858152602001908152602001600020600201546001600086815260200190815260200160002060030142600160008881526020019081526020016000206005016001600089815260200190815260200160002060060160009054906101000a900460ff16600160008a815260200190815260200160002060060160019054906101000a900473ffffffffffffffffffffffffffffffffffffffff16600160008b815260200190815260200160002060070160009054906101000a900473ffffffffffffffffffffffffffffffffffffffff16604051808a73ffffffffffffffffffffffffffffffffffffffff1673ffffffffffffffffffffffffffffffffffffffff168152602001806020018981526020018060200188815260200180602001871515151581526020018673ffffffffffffffffffffffffffffffffffffffff1673ffffffffffffffffffffffffffffffffffffffff1681526020018573ffffffffffffffffffffffffffffffffffffffff1673ffffffffffffffffffffffffffffffffffffffff16815260200184810384528c818154600181600116156101000203166002900481526020019150805460018160011615610100020316600290048015610bf15780601f10610bc657610100808354040283529160200191610bf1565b820191906000526020600020905b815481529060010190602001808311610bd457829003601f168201915b505084810383528a818154600181600116156101000203166002900481526020019150805460018160011615610100020316600290048015610c745780601f10610c4957610100808354040283529160200191610c74565b820191906000526020600020905b815481529060010190602001808311610c5757829003601f168201915b5050848103825288818154600181600116156101000203166002900481526020019150805460018160011615610100020316600290048015610cf75780601f10610ccc57610100808354040283529160200191610cf7565b820191906000526020600020905b815481529060010190602001808311610cda57829003601f168201915b50509c5050505050505050505050505060405180910390a150565b336001600083815260200190815260200160002060070160006101000a81548173ffffffffffffffffffffffffffffffffffffffff021916908373ffffffffffffffffffffffffffffffffffffffff1602179055507fc81916ff1e0384278177f177f3a0bd9c2f4d8c46fef371327ceaabc7881c923b6001600083815260200190815260200160002060000160009054906101000a900473ffffffffffffffffffffffffffffffffffffffff166001600084815260200190815260200160002060010160016000858152602001908152602001600020600201546001600086815260200190815260200160002060030142600160008881526020019081526020016000206005016001600089815260200190815260200160002060060160009054906101000a900460ff16600160008a815260200190815260200160002060060160019054906101000a900473ffffffffffffffffffffffffffffffffffffffff16600160008b815260200190815260200160002060070160009054906101000a900473ffffffffffffffffffffffffffffffffffffffff16604051808a73ffffffffffffffffffffffffffffffffffffffff1673ffffffffffffffffffffffffffffffffffffffff168152602001806020018981526020018060200188815260200180602001871515151581526020018673ffffffffffffffffffffffffffffffffffffffff1673ffffffffffffffffffffffffffffffffffffffff1681526020018573ffffffffffffffffffffffffffffffffffffffff1673ffffffffffffffffffffffffffffffffffffffff16815260200184810384528c818154600181600116156101000203166002900481526020019150805460018160011615610100020316600290048015610fe85780601f10610fbd57610100808354040283529160200191610fe8565b820191906000526020600020905b815481529060010190602001808311610fcb57829003601f168201915b505084810383528a81815460018160011615610100020316600290048152602001915080546001816001161561010002031660029004801561106b5780601f106110405761010080835404028352916020019161106b565b820191906000526020600020905b81548152906001019060200180831161104e57829003601f168201915b50508481038252888181546001816001161561010002031660029004815260200191508054600181600116156101000203166002900480156110ee5780601f106110c3576101008083540402835291602001916110ee565b820191906000526020600020905b8154815290600101906020018083116110d157829003601f168201915b50509c5050505050505050505050505060405180910390a150565b828054600181600116156101000203166002900490600052602060002090601f016020900481019282601f1061114a57805160ff1916838001178555611178565b82800160010185558215611178579182015b8281111561117757825182559160200191906001019061115c565b5b5090506111859190611189565b5090565b6111ab91905b808211156111a757600081600090555060010161118f565b5090565b905600a165627a7a7230582005371052d5ceb0e6e62764b918995f9266f0e6be193e9a871a7e83421f48157c0029",
  "source": "pragma solidity ^0.4.18;\n\ncontract FeelGood {\n    uint public donorID = 0;\n    \n    struct Donor {\n        address donationCenter;\n        string  nameOfDonor;\n        uint age;\n        string sex;\n        uint donationTime;\n        string bloodGroup;\n        bool isVerified;\n        address verifierAddress;\n        address hospitalAddress;\n   }\n    \n    mapping (uint => Donor) public donors;\n    \n    event DonorCreatedEvent(\n        uint donorID,\n        address donationCenter, \n        string nameOfDonor, \n        uint age, \n        string sex, \n        uint donationTime, \n        string bloodGroup, \n        bool isVerified,\n        address verifierAddress, \n        address hospitalAddress\n    );\n    \n    function setDonor (\n        string _nameOfDonor,\n        uint _age,\n        string _sex,\n        string _bloodGroup,\n        uint _donationTime\n    ) public \n    {\n        //Donor  memory myDonor = Donor({ donationCenter:msg.sender, nameOfDonor:_nameOfDonor, donorID:_donorID, nationality:_nationality,\n        //heightInCm:_heightInCm,sex:_sex,weight:_weight, date:now, bloodGroup:_bloodGroup, isVerified:false, verifierAddress:\"None\"   });\n        require(_age >= 18);\n\n        donorID = donorID+1;\n\n        var myDonor = donors[donorID];\n        myDonor.donationCenter = msg.sender;\n        myDonor.nameOfDonor = _nameOfDonor;\n        myDonor.age = _age;\n        myDonor.sex = _sex;\n        myDonor.donationTime = _donationTime;\n        myDonor.bloodGroup = _bloodGroup;\n        myDonor.isVerified = false;\n        myDonor.verifierAddress = 0;\n        myDonor.hospitalAddress = 0;\n\n        // set all values and put in event\n        DonorCreatedEvent(donorID, msg.sender, _nameOfDonor, _age, _sex, _donationTime, _bloodGroup, myDonor.isVerified, myDonor.verifierAddress, myDonor.hospitalAddress);\n    }\n\n    event IsTestedEvent(\n        address  donationCenter, \n        string  nameOfDonor, \n        uint age,\n        string sex,\n        uint date, \n        string bloodGroup,  \n        bool isVerified, \n        address verifierAddress, \n        address hospitalAddress\n    );\n\n\n    function isTested (uint _donorID) public {\n        donors[_donorID].isVerified = true;\n        donors[_donorID].verifierAddress = msg.sender;\n        IsTestedEvent(msg.sender, donors[_donorID].nameOfDonor, donors[_donorID].age, donors[_donorID].sex, now, donors[_donorID].bloodGroup, donors[_donorID].isVerified, donors[_donorID].verifierAddress,donors[_donorID].hospitalAddress);\n    }\n\n    event IsConsumedEvent(\n        address  donationCenter, \n        string  nameOfDonor, \n        uint age, \n        string sex, \n        uint date, \n        string bloodGroup,  \n        bool isVerified, \n        address verifierAddress, \n        address hospitalAddress\n    );\n\n    function isConsumed(uint _donorID) public {\n        donors[_donorID].hospitalAddress = msg.sender;\n        IsConsumedEvent(donors[_donorID].donationCenter, donors[_donorID].nameOfDonor, donors[_donorID].age, donors[_donorID].sex, now, donors[_donorID].bloodGroup, donors[_donorID].isVerified, donors[_donorID].verifierAddress,donors[_donorID].hospitalAddress);\n    }\n}",
  "sourcePath": "/Users/hezj/ethdenver/feel-good/src/contracts/FeelGood.sol",
  "compiler": {
    "name": "solc",
    "version": "0.4.18+commit.9cf6e910.Emscripten.clang"
  },
  "schemaVersion": "1.0.1",
  "updatedAt": "2018-02-17T13:23:05.941Z"
}